:020000040800F2
:1000000040FB01203D3B0008310800083308000890
:10001000370800083B0800083F08000800000000FF
:10002000000000000000000000000000430800087D
:1000300045080008000000004708000849080008BB
:10004000573B0008573B0008573B0008573B000848
:10005000573B0008573B0008573B0008573B000838
:10006000573B0008573B0008573B0008573B000828
:10007000573B0008573B0008573B0008573B000818
:10008000573B0008573B0008573B0008573B000808
:10009000573B0008573B0008573B0008573B0008F8
:1000A000573B0008573B0008573B0008573B0008E8
:1000B000573B0008573B0008CD680008573B000835
:1000C000573B0008573B0008573B0008573B0008C8
:1000D000573B0008373900087133000849310008E0
:1000E000573B0008573B0008573B0008573B0008A8
:1000F000573B0008573B0008573B0008573B000898
:10010000573B0008892F0008573B0008573B000861
:100110001D350008573B0008573B0008D132000846
:10012000573B0008573B0008573B0008573B000867
:10013000573B0008573B0008573B0008573B000857
:10014000573B0008573B0008573B0008573B000847
:10015000573B0008573B0008573B0008673A000828
:10016000573B0008573B0008573B0008573B000827
:10017000573B0008573B0008573B0008573B000817
:10018000573B0008573B0008DFF80CD00BF05AFA39
:1001900000480047AD01000840FB012030BF72B6A7
:1001A000704762B6704780F3088870471CB500241A
:1001B00000BF00BF00BF00BF00BFF948F949086099
:1001C00000BF4FF4A06003F0CBFCA82003F0C4FAFA
:1001D0004FF4E13003F0ECFB4FF4E13003F04BFB64
:1001E00000F09CFE4FF4965003F022F94FF4E130FA
:1001F00003F001FA53214FF47A7003F085F80020E0
:1002000005F02BFF022005F028FF0AE0322003F062
:1002100005FBE548006808B9012000E00020E2493C
:10022000086001F085FE0028F0D10AF011FBDF49DB
:1002300001220868DEA108F0A3FCDC49012248681D
:10024000DCA108F09DFC0AE0C82003F0E7FAD648DC
:10025000006808B9012000E00020D34908606A4620
:1002600001A9D5A00AF090FB0028EDD11322D3A15B
:10027000CC48006808F0AFFC054615B1D4A00BF0DF
:10028000ADFAC8480068C168C648006808F0A2FF17
:100290000020C54908604FF40051D24800F077FDB6
:1002A000002005F0F5FED04908704FF47A7003F095
:1002B000B5FA0120CD490870FDE0CC480078F8B9C6
:1002C00000F017FC80B1CAA00BF088FACEA00BF0AA
:1002D00085FA00F076FC0A2003F0A0FA0120C34959
:1002E00008700020CD4908804FF4FA7003F096FAA8
:1002F0000120AD4908604FF4FA7003F08FFADAE09C
:10030000BA4800780128D7D1C548008800F40040D9
:1003100000284DD0C2480078C249087008460078CD
:10032000042842D1C048407801281BD1BE488078BB
:10033000BD49C97800EB0120BC4908600846006847
:1003400040F2E731884202D30846B8490860B7480E
:10035000006810B90020B5490860B449098888B21E
:1003600000F002FCB0484078022816D1AE488078F0
:10037000AD49C97800EB0120AD4908600846006826
:1003800042F20F71884202D90846A9490860A8487C
:10039000006810B90020A6490860A34840780428E6
:1003A00003D10621A34803F09BFB00209C49088051
:1003B000A148008800F4004048B39F4800789F4956
:1003C000087008460078062813D19D484078032815
:1003D0000FD19B48407900069949097900EB01400B
:1003E0009749C97800EB01209549897808449549D7
:1003F000088092480078042806D191484078142853
:1004000002D101209049087000208B4908808F4854
:10041000006800284CD000208C4908600120624907
:10042000086000240EE08A48007800EB4002C2EB2E
:10043000C010884A02EB0010015D87A00BF0CEF9D6
:10044000601C84B2854800888442ECDB00F0EBFB42
:10045000642003F0E3F98248008800281DDD81A0B4
:100460000BF0BCF900240EE08048007800EB40025D
:10047000C2EBC0107E4A02EB0010015D76A00BF0CB
:10048000ADF9601C84B2764800888442ECDB002021
:100490007349088052A00BF0A1F96B4802786948B3
:1004A000018874A00BF09AF94DA00BF097F902E0C7
:1004B00000203D49086000E770B504460D46764BC4
:1004C0002A4621463748006808F025FD06465EB9F1
:1004D0003448006808F014FE36B9704800686E4968
:1004E000096808446D49086070BD38B52D4800683A
:1004F00008F05EFE6AA00BF071F901222FA12948D5
:10050000006808F068FB044614B973A00BF066F9A4
:100510006B464FF4FA627B492248006808F01BFCE6
:10052000044644B978A000990BF058F975497DA0AC
:100530000BF054F902E07FA00BF050F91948006865
:1005400008F036FE1CB980A00BF048F902E085A047
:100550000BF044F938BD7CB56A4601A916A00AF033
:1005600013FAC82003F05AF9132214A10D480068A9
:1005700008F031FB0446002C10D17FA00BF02EF9BF
:1005800084A00BF02BF90198810A85A00BF026F9C5
:100590000098810A88A00BF021F91DE118E1000004
:1005A000D40200200000002080824242ECF60120AC
:1005B000303A0000313A000030000000303A2F524B
:1005C000656365697665446174612E7478740000B2
:1005D0004F70656E2066696C65206661696C656444
:1005E0000D0A00001817002034000020120000201F
:1005F000436F6D6D756E69636174696F6E206973A9
:10060000204F4B0D0A000000526561647920746F21
:1006100020726561642E2E2E0000000084000020F0
:100620009800002035000020484C00201C000020CD
:100630001800002037000020900000203600002025
:10064000104D002020000020220000201400002077
:1006500081000020082D00202563000058000020A4
:100660005A00002024484653534A2C008900002099
:10067000A83C00202457524A534A2C4261747465A6
:1006800072793A25642C52657475726E466C616796
:100690003A25640D0A000000C80200204000002036
:1006A0000D0A2A2A2A2A2A2A2A2A2A2A2A2A2A2AE7
:1006B0002A2A2A2A5265616420545854206461749D
:1006C000612A2A2A2A2A2A2A2A2A2A2A2A2A2A2A53
:1006D0002A2A0D0A000000004F70656E2066696CC2
:1006E00065207375636365737366756C6C792C72C2
:1006F0006561647920746F20726561642E2E2E0D01
:100700000A000000FC0400205265766569766520C9
:100710004461746120436F756E7465723A25640D8F
:100720000A000000446174613A0D0A202573200D0F
:100730000A000000526561642066696C652066618C
:10074000696C65640D0A0000636C6F7365206669EF
:100750006C65207375636365737366756C6C790D76
:100760000A000000636C6F73652066696C65206623
:1007700061696C65640D0A004F70656E2066696C76
:1007800065207375636365737366756C6C790D0AA8
:10079000000000004641544653204F4B210D0A00F3
:1007A000534420546F74616C2053697A653A256410
:1007B00020094D420D0A0000534420204672656511
:1007C0002053697A653A2564094D420D0A000000FC
:1007D000AFF204200BF002F8C82003F01FF80D4818
:1007E00001680D4809F0BDFE054629460BA00AF038
:1007F000F5FF0848006808F0DBFC044624B9AFF2B6
:10080000B8000AF0EBFF03E0AFF2A8000AF0E6FF41
:100810007CBD000000000020110000207772697488
:10082000652064617461202564200D0A00000000C9
:10083000704700BFFEE700BFFEE700BFFEE700BF56
:10084000FEE7704770477047704700000CB5002006
:10085000019000907648006840F480307449086048
:1008600000BF7348006800F4003000900198401CFD
:100870000190009818B90198B0F5A04FF1D16C48DB
:10088000006800F4003010B10120009001E0002069
:1008900000900098012846D165484030006840F03B
:1008A00080506349403108606248006840F440402D
:1008B000604908605E48083000685D49083108609A
:1008C0000846006840F4004008600846006840F4AC
:1008D000A05008605848091F0860081F006840F0D1
:1008E0008070091F086000BF5148006800F0007068
:1008F0000028F9D040F20570504908604C48083093
:10090000006820F003004A49083108600846006882
:1009100040F00200086000BF45480830006800F061
:100920000C000828F8D10CBD10B54548006840F40B
:100930007000434908603E48006840F001003C49AF
:10094000086000203A4908310860394800683D498C
:100950000840374908603C48091D0860081F0068C6
:1009600020F48020091F0860002031490C31086004
:10097000FFF76CFF4FF0006031498039086010BD0F
:1009800070B500200022022300240221284D0835E2
:100990002D6805F00C0020B1042806D0082834D1B9
:1009A00007E02A4D2A4E356033E02A4D284E356047
:1009B0002FE01F4D2D1D2D68C5F380541C4D2D1D9E
:1009C0002D6805F03F0154B1224DB5FBF1F5184EED
:1009D000361D3668C6F3881605FB06F209E01B4D86
:1009E000B5FBF1F5124E361D3668C6F3881605FBC9
:1009F00006F20F4D2D1D2D68C5F301456D1C6B00D2
:100A0000B2FBF3F5124E356003E0104D104E356029
:100A100000BF00BF064D08352D68C5F303150E4E07
:100A2000705D0B4D2D68C540094E356070BD0000EE
:100A3000003802400070004008544007003C02406B
:100A400088ED00E0FFFFF6FE103000240024F400E3
:100A50004400002000127A00480000202DE9F04FE9
:100A60008BB081460C4692462822ABA101A80AF021
:100A7000AAFB0026BAF10A0F09D1B9F1000F06DA74
:100A8000C9F100072D223046761C225400E04F4663
:100A900000BFB7FBFAF00AFB107001A90A5C3046F0
:100AA000761C2254B7FBFAF7002FF2D10020A05594
:100AB00020782D2802D14FF0010801E04FF0000806
:100AC00045460CE014F805B0701E4044401B205C05
:100AD0006055701E4044401B04F800B06D1C701E31
:100AE00000EBD071B5EB610FECDD20460BB0BDE83B
:100AF000F08F30B585B0052591A0006802900024E4
:100B000090A103C9CDE900010020904908600221AD
:100B100002A802F0E1FD0A2002F080FE8C48007875
:100B2000B8B100208A49087000BF0DE089480078FC
:100B300000EB4001C1EBC010874901EB0010005DE4
:100B400003A90855601CC4B2052CEFDB00208349C3
:100B50000880052203A968460AF065FB10B1002051
:100B600005B030BD0120FBE71CB5044656208DF8CA
:100B70000000642094FBF0F00A2190FBF1F201FBED
:100B800012003030C0B28DF801000A2094FBF0F062
:100B900090FBF1F201FB12003030C0B28DF8020080
:100BA0000A2094FBF0F100FB11403030C0B28DF808
:100BB00003000A208DF804000521684602F08CFD30
:100BC0001CBD08B566A0006800900221684602F0CE
:100BD00083FD08BD10B586B0002462A000680390B4
:100BE00061A103C9CDE90101022103A802F074FD4E
:100BF0000A2002F013FE59480088042808DD5748EF
:100C0000028804A95A4800F07AF900205349088064
:100C1000052204A901A80AF006FB10B1002006B0C5
:100C200010BD0120FBE738B5002452A000680090F9
:100C30000221684602F050FD0A2002F0EFFD01207B
:100C400038BDF8B504460E460020009000255CE053
:100C500001226946464800F052F947490870681C6D
:100C6000C5B2464800780A280DD145480278211DB2
:100C70003F4800F044F942480078001D30800020D1
:100C80003E49087045E03D48007802281DD1032DFB
:100C90000AD13B4800789DF8001008443849087094
:100CA0009DF80000A07030E0042D2ED19DF80000CA
:100CB000E070334800789DF8001000EB01203049C7
:100CC00008700A202D4908701FE02C480078012880
:100CD0000AD19DF80000FE2806D10220274908709D
:100CE0009DF80000607010E02448007850B99DF82D
:100CF0000000FE2806D10120204908709DF8000060
:100D0000207002E000201D4908701C4800780A2865
:100D10009EDD00BFF8BD0000303132333435363748
:100D200038394142434445464748494A4B4C4D4E69
:100D30004F505152535455565758595A00000000BD
:100D4000510A00004F4B20510A00000080824242AD
:100D50008600002089000020A83C0020840000209C
:100D60004B0A0000530A00004F4B20530A000000BA
:100D700018170020450A00005E0000205C000020DB
:100D80005D0000200146D1E90002801A704770B56D
:100D900004460D4615B1681E284010B14FF0FF30D3
:100DA00070BD012020606060022D04D20020E06050
:100DB000A060401EF4E72946002005F010FAE0602C
:100DC000E06818B90020A060401EE9E7681EA06036
:100DD0000020E5E710B50446E0680BF08FF900202D
:100DE00020606060E060A06010BD034612B1501E3C
:100DF000104010B14FF0FF3070470020186058606D
:100E0000D960022A02D29860401EF5E7501E986011
:100E10000020F1E72DE9F0470446884616461D46B6
:100E2000A06800F10109A0680540A9EB0500B042E7
:100E300001D9304601E0A9EB05000746E1684819F1
:100E40003A4641460AF0BFF9F21B08EB0701E06899
:100E50000AF0B9F9BDE8F0872DE9F04104460F46E4
:100E6000154600BFD4E90001411AA068401C401A91
:100E70000646B54200D935462A46394620462368FB
:100E8000FFF7C8FF2068284420602846BDE8F081AD
:100E90002DE9F04704460E4617461D46A06800F1AE
:100EA0000109A0680540A9EB0500B84201D9384600
:100EB00001E0A9EB05008046E06841194246304652
:100EC0000AF081F9A7EB080206EB0800E1680AF0D6
:100ED0007AF9BDE8F0872DE9F04104460F46154642
:100EE000D4E90001461AB54200D935462A463946AA
:100EF00020466368FFF7CCFF2846BDE8F08170B557
:100F000004460E4615462A4631462046FFF7E3FFC3
:100F10000546606828446060284670BD1CB5012104
:100F2000202003F09FFA0320009001208DF8040098
:100F300000208DF8060003208DF8050001208DF8B3
:100F400007006946034802F001FF0321014802F04F
:100F500079FF1CBD0014024010B5044600BF0221F9
:100F6000414805F033F80028F9D021463E4804F006
:100F7000E4FF00BF01213C4805F028F80028F9D023
:100F8000394804F0D7FFC0B210BD00B587B00121C9
:100F9000084603F067FA0121080303F0BDFA382080
:100FA000059002208DF8180000208DF81A0003200B
:100FB0008DF8190001208DF81B0005A92B4802F0BF
:100FC000C5FE05220321294802F04BFF052204211A
:100FD000264802F046FF05221146244802F041FF50
:100FE0000121080303F0EDFA00214FF4805003F0D3
:100FF000E8FA0020ADF800004FF48270ADF802006E
:101000000020ADF804000220ADF806000120ADF884
:1010100008004002ADF80A003820ADF80C000020AE
:10102000ADF80E000720ADF8100069460E4804F038
:1010300009FE01210C4804F0FFFEFF20FFF78CFFA2
:1010400007B000BD10B50446074800884FF6C771C9
:10105000084005490880084600882043088001218F
:10106000014804F0E9FE10BD0030014000040240D8
:1010700010B500240020D64908609020FFF76CFFCF
:101080000020FFF769FF0020FFF766FF0020FFF751
:1010900063FFFF20FFF760FF44EA0024FF20FFF713
:1010A0005BFF04430120CB49C1F8B802204610BDC4
:1010B0001CB50121022003F0D5F90121402003F0E5
:1010C000D1F94FF48040009001208DF804000020F9
:1010D0008DF8060003208DF8050001208DF807002B
:1010E0006946BD4802F032FE802000906946BB4848
:1010F00002F02CFE8021B94802F0A4FE0120B44980
:101100000860FFF742FF0020FFF79CFFFFF7B0FFEA
:10111000B34908801CBD10B500240020AC4908600C
:101120000520FFF719FFFF20FFF716FF04460120F7
:10113000A849C1F8B802204610BD10B504460020E9
:10114000A34908600120FFF707FF2046FFF704FFCF
:101150000120A049C1F8B80210BD10B500209C497B
:1011600008600620FFF7F8FE01209A49C1F8B8028E
:1011700010BD10B50020964908600420FFF7ECFE72
:1011800001209449C1F8B80210BD2DE9F04106468E
:101190000C46174600208E4908600320FFF7DCFE4E
:1011A000C4F30740FFF7D8FEC4F30720FFF7D4FECF
:1011B000E0B2FFF7D1FE002505E0FF20FFF7CCFEEF
:1011C0007055681C85B2BD42F7DB0120804908607C
:1011D000BDE8F08110B500BFFFF79DFF00F00100F2
:1011E0000028F9D110BD2DE9F04106460C461746FE
:1011F000FFF7B3FF0020764908600220FFF7ACFE3E
:10120000C4F30740FFF7A8FEC4F30720FFF7A4FECE
:10121000E0B2FFF7A1FE002504E0705DFFF79CFE41
:10122000681C85B2BD42F8DB012069490860FFF700
:10123000D1FFBDE8F0812DE9F04107460E46144686
:10124000F0B2C0F58075AC4200DC254612E02A46BB
:1012500031463846FFF7C7FFAC4200D10BE02F44C0
:101260002E44601B84B2B4F5807F02DD4FF480759C
:1012700000E02546EBE700BFBDE8F08110B504466D
:101280002403FFF76AFFFFF7A5FF0020504908601D
:101290002020FFF761FEC4F30740FFF75DFEC4F3B3
:1012A0000720FFF759FEE0B2FFF756FE012049493B
:1012B000C1F8B802FFF78EFF10BD2DE9F05F81463F
:1012C0000F461646DFF81CB14FEA1738C7F30B0A72
:1012D000CAF58054A64200DC344644E04FEA0831A7
:1012E0004FF480525846FFF750FF002508E00AEB04
:1012F00005001BF80000FF2800D003E0681C85B241
:10130000A542F4DB00BFA54216DA4046FFF7B6FF60
:10131000002507E019F8050005EB0A010BF80100AC
:10132000681C85B2A542F5DB4FEA08314FF48052C4
:101330005846FFF780FF04E0224639464846FFF74B
:101340007AFFA64200D10FE008F101084FF0000A31
:10135000A1442744301B86B2B6F5805F02DD4FF40E
:10136000805400E03446B9E700BFBDE8F09F10B5F7
:10137000FFF7F3FEFFF72EFF002015490860C72096
:10138000FFF7EAFD01201349C1F8B802FFF722FF79
:1013900010BD10B500200E490860B920FFF7DCFD34
:1013A00001200C49C1F8B802032002F0EFF910BD8A
:1013B00010B5002006490860AB20FFF7CDFD0120E5
:1013C0000449C1F8B802032002F0E0F910BD0000A2
:1013D000B8824042008040420004024000180240AF
:1013E00060000020281700200020FE490860091D29
:1013F0000860091D0860091D0860FA492431086069
:10140000091D0860091D0860F748F6493831086071
:101410000020091D0860704701460020012900D006
:1014200011B9F24B197000E0262070470146ED4AD1
:10143000121D106820F0FF0008431060704770B55F
:10144000044606E0E7483430056805F0450000B181
:1014500000E0F7E700BF042002F004FE20B1042002
:1014600002F00BFE032070BD012002F0FBFD20B155
:10147000012002F002FE0120F5E7DA481030006892
:10148000A04201D01020EEE740F2FF5002F0F5FD3F
:10149000D4481430006808210840C0B2E3E72DE9C1
:1014A000FC4107460D4600260024002000900190D4
:1014B0000820CF4908601020486040208860002044
:1014C000C8604FF480600861084602F038FD1020C3
:1014D000FFF7B5FF044614B12046BDE8FC81C548BE
:1014E00000880004C24908603720486040208860B6
:1014F0000020C8604FF480600861084602F01FFDBC
:101500003720FFF79CFF04460CB12046E5E74FF07B
:10151000FF30B94908600820486030208860022008
:10152000C8600020086101204861084602F033FDD0
:101530000020AF49086033204860402088600020C8
:10154000C8604FF480600861084602F0F8FC332060
:10155000FFF775FF04460CB12046BEE70DE04FF4DF
:10156000001002F07FFD40B19E48803000684DF8C9
:101570002600761C022E00D307E09A48343000681B
:1015800040F22A6108400028E9D000BF082002F09C
:1015900069FD20B1082002F070FD04209DE70220C3
:1015A00002F060FD20B1022002F067FD022094E706
:1015B000202002F057FD20B1202002F05EFD062021
:1015C0008BE74FF4007002F04DFD28B14FF400702E
:1015D00002F053FD072080E740F2FF5002F04DFD7E
:1015E00000980006009901F47F4140EA012000992B
:1015F00001F47F0140EA1120009940EA116068601F
:1016000001980006019901F47F4140EA0120019907
:1016100001F47F0140EA1120019940EA116028603D
:1016200020465AE77CB50546002400200090019032
:1016300000260DB1022600E000266A48143000683A
:1016400000F0007008B10E207CBD6A49098888B29C
:101650006946FFF724FF04460CB12046F4E70198E1
:1016600000F4802060B3634800880004604908608B
:1016700037204860402088600020C8604FF48060B8
:101680000861084602F05BFC3720FFF7D8FE0446ED
:101690000CB12046D8E756480660062054494860F9
:1016A000402088600020C8604FF4806008610846D0
:1016B00002F045FC0620FFF7C2FE04462046C3E7C1
:1016C0002520C1E770B5044600254C480078032862
:1016D00002D12725284670BD4848007838B14748D0
:1016E0000078012803D045480078022819D1B4F5C4
:1016F000805F02D127252846EDE7E0B2FFF792FF91
:10170000054675B93748001D006820F4C0503549BA
:10171000091D086008460068204308600846006804
:1017200008602846D7E710B5044631480460072012
:101730002F494860402088600020C8604FF48060D6
:101740000861084602F0FBFB0720FFF778FE10BD9A
:10175000F0B5014600200022284B1B7881F8563056
:10176000244B1B88A1F85430254B1B681A0E930993
:101770000B70C2F383034B7002F003038B70204B9A
:101780001B68C3F30742CA701D4B1B88C3F30722B3
:101790000A711B4B1A784A715B681A0E1301CB80D1
:1017A000174B5B68C3F30742CB8843EA1213CB8025
:1017B00002F00F030B72124B9B88C3F30722D3096D
:1017C0004B72C2F380138B72C2F34013CB72C2F31D
:1017D00000130B7300234B73084B1B78C3B1074BEB
:1017E0001B780FE0002C0140FF07C0006C000020B8
:1017F00040270020680000205427002064000020BB
:101800006C270020012B03D0FE4B1B78032B4FD1FC
:1018100093071B0D0B61FC4B1A790B6943EA82039A
:101820000B61F94B9B681A0E0B6943EA92130B612B
:10183000C2F3C2030B7502F007034B75F24B9B68B2
:10184000C3F3074253098B75C2F38203CB75930729
:101850005B0F0B76EC4B1B89C3F307220B7E43EA2D
:10186000D2130B760B695B1C0024C1E912340B7E8A
:101870009B1C012404FA03F3DC17D1E91256A5FBE3
:10188000037C06FB03C305FB0433C1E912730C7A26
:101890000123A3400B650024D1E912650B6DA6FB63
:1018A000037C05FB03C306FB0433C1E912732EE07E
:1018B000D44B1B78022B2AD1D34B1A7993069B0A5F
:1018C0000B61D14B9B681A0E0B6943EA02230B6133
:1018D000CD4B9B68C3F307420B6913430B61CA4BA3
:1018E0001B89C3F307220B695B1C4FF40074A3FB35
:1018F00004464FF480630025A4FB037C06FB03C36E
:1019000004FB0533C1E912734FF400730B65C2F396
:10191000801301F8193F93065B0E4B70BA4B1A7A8D
:101920004B7843EAD2134B7002F07F038B70B64BB7
:10193000DB681A0ED309CB70C2F341130B71C2F3EB
:1019400082034B7193071B0F8B71AF4BDB68C3F3A3
:1019500007428B7943EA92138B71C2F34013CB7128
:1019600000230B7202F001034B72A74B9B89C3F358
:101970000722D3098B72C2F38013CB72C2F34013D8
:101980000B73C2F300134B73C2F381038B7302F02A
:101990000303CB739C4B1A7B53080B7401234B74CA
:1019A0009A4B1B681A0ECA741939984B1B68C3F3FB
:1019B00007421402CC85954B1B88C3F30722CB8DBD
:1019C0001343CB85914B1A7814060C635B681A0E8F
:1019D0000B6B43EA02440C638C4B5B68C3F3074216
:1019E0000B6B43EA02240C63884B9B88C3F30722EA
:1019F0000B6B13430B63854B1A7934235A54834B77
:101A00009B681A0E35235A54804B9B68C3F30742D8
:101A100014068C637D4B1B89C3F307228B6B43EA4F
:101A200002448C63794B1A7A8B6B43EA02248C63F1
:101A3000764BDB681A0E8B6B13438B63734BDB683F
:101A4000C3F307423C235B5C43EA12143C235C541F
:101A500013071C0DCC876D4B9B89C3F30722CB8FDB
:101A60001343CB87694B1A7B540840235C540124F1
:101A700041235C54F0BD70B500264FF4803505E07D
:101A80006348046804F0450000B103E0281EA5F196
:101A90000105F5D100BF15B104F0040028B10326FB
:101AA000042002F0EAFA304670BD012002F0DAFAB2
:101AB00018B10126012002F0E0FA40F2FF5002F0D6
:101AC000DCFA3046F0E72DE9F04105460E464FF0CE
:101AD000000805E04E48076807F0450000B100E047
:101AE000F8E700BF042002F0BDFA28B1042002F09C
:101AF000C4FA0320BDE8F081012002F0B3FA20B15E
:101B0000012002F0BAFA0120F4E7414824380068C5
:101B1000A84201D01020EDE740F2FF5002F0ADFAEC
:101B20003B482038046804F4604018B9200C308029
:101B30004046DFE704F4005008B11320DAE704F46C
:101B4000804008B11020D5E704F4004008B10F2010
:101B5000D0E74046CEE738B500240120009002F0DF
:101B6000E8F910B92524204638BD26480078042815
:101B700025D000202749086002204860C0208860E6
:101B80000020C8604FF480600861084602F0D7F971
:101B9000FFF771FF04460CB12046E5E71C482038EA
:101BA00000681A4908601A481C38006848601848DC
:101BB000183800688860164814380068C8601148F2
:101BC000007858B10F480078012807D00D480078F8
:101BD000062803D00B480078022821D100200D49A7
:101BE000086003204860402088600020C8604FF4EF
:101BF00080600861084602F0A2F969460320FFF7F9
:101C000062FF09E0640000206C2700207C27002090
:101C1000342C01404027002004460CB12046A3E7A5
:101C2000FE480078032816D1BDF800000004FC49E6
:101C3000086003204860402088600020C8604FF49E
:101C400080600861084602F07AF9FFF714FF044645
:101C50000CB1204688E7F148007804282AD0BDF866
:101C60000000F0490860BDF800000004EC4908607D
:101C700009204860C02088600020C8604FF4806060
:101C80000861084602F05BF9FFF7F5FE04460CB167
:101C9000204669E7E4480068E4490860E248001D1E
:101CA00000684860E048083000688860DE480C3012
:101CB0000068C860002057E710B506E0DA48203019
:101CC000046804F0450000B100E0F7E700BF04201D
:101CD00002F0C8F920B1042002F0CFF9032010BDB2
:101CE00040F2FF5002F0C9F90020F8E770B5002675
:101CF0004FF4803506E0CC482030046804F04500FD
:101D000000B103E0281EA5F10105F4D100BF15B113
:101D100004F0040028B10326042002F0AEF9304696
:101D200070BD04F0400018B10026402002F0A5F973
:101D30003046F5E770B500254FF4803404E080208C
:101D400002F090F900B103E0201EA4F10104F6D1E5
:101D500000BF0CB9032070BD40F2FF5002F08DF9B6
:101D60002846F8E72DE9F047002700240026002543
:101D7000A046A1467620AE4908750020086048605C
:101D80008860C8600861084602F0AFF8032002F0DE
:101D9000CCF8A5481038006840F48070A24910398A
:101DA000086000BF12E000209D490860486088601C
:101DB000C8604FF480600861084602F0C0F8FFF781
:101DC000B9FF044604B903E0781CC7B24A2FEADB26
:101DD00000BF14B12046BDE8F0874FF4D57090499C
:101DE000086008204860402088600020C8604FF4E8
:101DF00080600861084602F0A2F8FFF777FF04460A
:101E000024B90120854908704FF080490020844999
:101E1000086037204860402088600020C8604FF488
:101E200080600861084602F08AF83720FFF707FB58
:101E30000446002C4BD134E000207949086037205B
:101E40004860402088600020C8604FF480600861CE
:101E5000084602F074F83720FFF7F1FA04460CB197
:101E60002046B8E7734849EA00006D490860292018
:101E70004860402088600020C8604FF4806008619E
:101E8000084602F05CF8FFF717FF04460CB1204645
:101E9000A1E765480668012080EAD67080F0010855
:101EA0006D1CB8F1000F03D14FF6FF708542C3D30C
:101EB0004FF6FF70854202D31B2420468BE706F0C5
:101EC0008040061E32D00220544908702EE01CE0EB
:101ED000594853490860012048604020886000202C
:101EE000C8604FF480600861084602F028F8FFF7E8
:101EF000E3FE04460CB120466DE74B48066801201E
:101F000080EAD67080F001086D1CB8F1000F03D193
:101F10004FF6FF708542DBD34FF6FF70854202D348
:101F20001B24204657E703203C490870204652E70F
:101F30003EB5002400250121404802F093FA01211A
:101F4000C80202F0E9FA0121C80202F03AFB4FF49C
:101F5000F850019002208DF808008DF8090000204B
:101F60008DF80A0001208DF80B0001A9344801F01A
:101F7000EDFE0420019001A9324801F0E7FE0C2299
:101F800008212F4801F06DFF0C2209212C4801F097
:101F900068FF0C220A212A4801F063FF0C220B2162
:101FA000274801F05EFF0C221146254801F059FF39
:101FB0000C220221234801F054FF00214FF400605D
:101FC00002F0FFFAFFF710FA31208DF80000002030
:101FD0008DF801008DF8020001208DF8030068469D
:101FE00001F0C3FDFFF7BEFE044614B9FFF7B3FDD1
:101FF00004461CB91448FFF7ABFB044634B9124938
:10200000B1F854100804FFF78EFB044624B94FF4CE
:102010000060FFF757FB0446E4B117E064000020BE
:102020004027002068000020142C01406C2700206D
:1020300028270020000010800080FF800C00400056
:1020400000080240000C024090270020FE48007863
:10205000032812D1FD4890F8560020B1FB4890F8B3
:102060005600012801D1022500E000252846FFF78F
:10207000DDF90020FFF7D0F9044620463EBD10B53B
:10208000002001F052FF002010BD70B590B0044652
:102090000E46154600BFEE4802F08BFE0028FAD12E
:1020A000EB4802F05DFD4FF000600190E9480290BE
:1020B000039404950020059006904FF480600790EB
:1020C000800008908000099000200A904FF4403072
:1020D0000B9004200C9003200D904FF400000E9004
:1020E00080100F9001A9DA4802F0DCFD2021D848C9
:1020F00002F028FE0121D64802F00EFE10B070BD9D
:102100000146002002E04910421CD0B20129FAD158
:1021100070472DE9F84F8146174698460A9C4FF0C4
:10212000000AD3464D464FF0FF36B9F1000F02D1F9
:102130002620BDE8F88F0020C64954390860C248FF
:102140000078022805D10402780A40EAC8574FEA0D
:1021500068280020C04988604860401E086001204F
:1021600048610020C8600861084601F014FFB948C2
:102170006C38006800F0007008B10E20D9E7002C20
:1021800021DDB4F5006F1EDC601E2040D8B920466A
:10219000FFF7B6FF0090B14804601020AF494860D7
:1021A000402088600020C8604FF4806008610846C5
:1021B00001F0C5FE1020FFF742F98246BAF1000F88
:1021C00003D05046B5E72620B3E700980001A249A6
:1021D0008860084644604FF0FF3008600120486185
:1021E0000220C86000200861084601F0D4FE9B4828
:1021F0000760112099494860402088600020C8602D
:102200004FF480600861084601F099FE1120FFF745
:1022100016F98246BAF1000F01D0504689E790487E
:10222000007800285AD1FDF7BAFF17E04FF40040BC
:1022300001F018FF70B14FF0000B05E08548006811
:1022400045F82B000BF1010BBBF1080FF6D320353D
:10225000844E03E00EB904206BE7761E7D484C38AF
:10226000006840F22A6108400028DFD0082001F011
:10227000F9FE20B1082001F000FF042059E70220F8
:1022800001F0F0FE20B1022001F0F7FE022050E73D
:10229000202001F0E7FE20B1202001F0EEFE062014
:1022A00047E74FF4007001F0DDFE28B14FF40070F5
:1022B00001F0E3FE07203CE703E066480068286081
:1022C0002D1D4FF4001001F0CDFE0028F5D1FDF7D3
:1022D00068FF40F2FF5001F0D0FE39E0604800781E
:1022E000012835D1002060490870604908706049B4
:1022F000087058484438006840F22A31084355496C
:102300004439086053485438006840F00800514987
:1023100054390860002221464846FFF7B6FE00E027
:10232000761E4B485838006800F0006038B95048B5
:10233000007820B94C48007808B9002EF0D10EB9C9
:102340000420F6E64848007810B1474890F800A00D
:102350005046EEE62DE9FF5F17469846DDE90E464A
:102360004FF00009CA464FF0FF3542490098086017
:10237000002038495439086033480078022805D1D4
:102380000402780A40EAC8574FEA68280020324918
:1023900088604860401E0860012048610020C860D5
:1023A0000861084601F0F7FD2A486C38006800F023
:1023B000007018B10E2004B0BDE8F09F002C21DDA4
:1023C000B4F5006F1EDC601E2040D8B92046FFF730
:1023D00097FE834621480460102020494860402031
:1023E00088600020C8604FF480600861084601F0F2
:1023F000A6FD1020FFF723F88146B9F1000F03D0A6
:102400004846D8E72620D6E7012E6ED906FB04F011
:10241000B0F1007F01D32620CDE74FEA0B100E4923
:10242000886006FB04F048604FF0FF300860012030
:1024300048610220C86000200861084601F0ABFD39
:1024400006480760122017E0640000209027002053
:1024500058640240802C014054270020402700206F
:102460006C000020FFFF7F006E0000206D00002048
:102470006F00002070000020F9494860402088600B
:102480000020C8604FF480600861084601F057FDE5
:102490001220FEF7D4FF8146B9F1000F01D0484663
:1024A00089E7F048007800287ED1FDF778FE1EE02D
:1024B0004FF4004001F0D6FDA0B14FF0000A07E054
:1024C000E9480068E949096841F82A000AF1010A67
:1024D000BAF1080FF4D3E54800682030E3490860FA
:1024E000E34D04E015B9042065E7AEE06D1EDE485B
:1024F0004C38006840F22A3108400028D8D0082023
:1025000001F0B0FD20B1082001F0B7FD042052E732
:10251000022001F0A7FD20B1022001F0AEFD022053
:1025200049E7202001F09EFD20B1202001F0A5FD0B
:10253000062040E74FF4007001F094FD28B14FF4FD
:10254000007001F09AFD072035E709E0C6480068F1
:10255000C64909680860C5480068001DC34908608D
:102560004FF4001001F07EFD0028EFD14FF4807091
:1025700001F078FD20B3BF48007838B1BD4800783D
:10258000012803D0BB480078022819D10020B449A3
:1025900008600C204860402088600020C8604FF42C
:1025A00080600861084600E011E001F0C8FC0C20E2
:1025B000FEF745FF8146B9F1000F01D04846FAE623
:1025C000FDF7EFFD40F2FF5001F057FD3DE0A5485B
:1025D0000078012839D10020A74908700120A749B7
:1025E00008700020A64908709F484438006840F2EF
:1025F0002A3108439C49443908609B485438006894
:1026000040F0080098495439086006FB04F10022A4
:102610000098FFF73AFD00E06D1E9A48006800F050
:10262000006008B9002DF7D10DB90420C3E600BF42
:102630009348007818B9904800780028F8D08E4860
:10264000007810B18C4890F800904846B3E61CB56D
:1026500004460020019000908B48008800048049C7
:1026600008600D204860402088600020C8604FF45A
:1026700080600861084601F062FC7B484C380068C5
:10268000009003E078484C3800680090009800F013
:1026900045000028F6D0012001F0E4FC20B1012023
:1026A00001F0EBFC01201CBD042001F0DBFC20B19B
:1026B000042001F0E2FC0320F5E76B487038006865
:1026C0000D2801D01020EEE740F2FF5001F0D5FCBC
:1026D00065486C38006801900198C0F34320207071
:1026E0000020E0E72DE9FF5F86B017469846149D6D
:1026F0000026002005900490002481460390824625
:1027000002900195DDF818B0DDF818B0BBF1000FAC
:1027100003D126200AB0BDE8F09F00205249543969
:1027200008605A4988604860401E0860012048617E
:102730000020C8600861084601F02DFC4A486C384A
:10274000006800F0007008B10E20E3E74948007807
:10275000022805D10502780A40EAC8574FEA6828DE
:10276000002D1FDDB5F5006F1CDC681E2840C8B9C0
:102770002846FFF7C5FC0590394805601020384908
:102780004860402088600020C8604FF48060086185
:10279000084601F0D4FB1020FEF751FE06461EB19C
:1027A0003046B7E72620B5E73748008800042C49B3
:1027B00008600D204860402088600020C8604FF409
:1027C00080600861084601F0BAFB0D20FEF737FE75
:1027D00006460EB130469DE723486C3800680390EA
:1027E0004FF0FF341CE0641E2748008800041C4999
:1027F00008600D204860402088600020C8604FF4C9
:1028000080600861084601F09AFB0D20FEF717FE74
:1028100006460EB130467DE713486C3800680390D9
:10282000039800F4807008B9002CDCD10CB9292081
:1028300070E70B480760182009494860402088600D
:102840000020C8604FF480600861084601F077FB03
:102850001820FEF7F4FD0646D6B130465AE70000D0
:10286000402700206C000020802C014070000020D8
:10287000FFFF7F00640000206E0000206D0000203C
:102880006F000020006402406800002054270020F0
:102890000020F849087005980001F749886008464B
:1028A00045604FF0FF300860012048610020C8609B
:1028B0000861084601F06FFB4FF0FF34EF480078E5
:1028C00000287CD1FDF76BFC43E04FF4804001F021
:1028D000C9FBC8B30198A0EB0900202821D20198B8
:1028E000A0EB090000F0030020B90198A0EB09005B
:1028F000800804E00198A0EB09008008401C0290C9
:102900004FF0000A09E0DE49DBF8000008600AF138
:10291000010A0BF1040B09F1040902988245F2D374
:102920000FE04FF0000A05E05BF82A00D449086088
:102930000AF1010ABAF1080FF6D30BF1200B09F1E5
:1029400020096FF0404404E0FFE70CB90420E1E601
:10295000641ECB484C38006840F21A6108400028D9
:10296000B3D0082001F07EFB20B1082001F085FBE8
:102970000420CFE6022001F075FB20B1022001F017
:102980007CFB0220C6E6102001F06CFB20B1102079
:1029900001F073FB0520BDE64FF4007001F062FB0F
:1029A00030B14FF4007001F068FB0720B2E606E09A
:1029B000FDF7F7FB40F2FF5001F05FFB43E0AF484B
:1029C000007801283FD10020AE490870A94908705D
:1029D000AD490870AA484438006840F21A310843EB
:1029E000A74944390860402229460698FFF74DFB65
:1029F000A3485438006840F00800A14954390860E1
:102A000000E0641EA148006800F0006008B9002CD6
:102A1000F7D11CB9FFF78CFA04207BE64FF0FF34A6
:102A200000E0641E9848007820B99648007808B9FC
:102A3000002CF6D10CB904206CE69248007810B155
:102A40009048007866E640F2FF5001F016FB04A8BB
:102A5000FFF7FDFD064603E004A8FFF7F8FD064674
:102A60003EB99DF810000728F6D09DF81000062802
:102A7000F2D030464EE62DE9FF5F84B0DDE9124723
:102A80000026002003900290002580468146019098
:102A900007FB04FBDDF810A0DDF810A0BAF1000F71
:102AA00003D1262008B0BDE8F09F002074495439B6
:102AB0000860714988604860401E086001204861D4
:102AC0000020C8600861084601F065FA6C486C385F
:102AD000006800F0007008B10E20E3E76C48007851
:102AE000022808D10402DDE90601400A40EAC1508B
:102AF0004912CDE90601002C1FDDB4F5006F1CDC86
:102B0000601E2040C8B92046FFF7FAFA03906148DA
:102B1000046010205F494860402088600020C86041
:102B20004FF480600861084601F009FA1020FEF7B2
:102B300086FC06461EB13046B4E72620B2E7012FD8
:102B40006FD907FB04F0B0F1007F01D32620A9E77D
:102B50004F48007838B14E480078012803D04C48DF
:102B6000007802282DD14C480088000449490860AB
:102B700037204860402088600020C8604FF48060A3
:102B80000861084601F0DBF93720FEF758FC0646DD
:102B90000EB1304686E73F48076017203D49486040
:102BA000402088600020C8604FF4806008610846BB
:102BB00001F0C5F91720FEF742FC06460EB130467B
:102BC00070E7344906980860192048604020886002
:102BD0000020C8604FF480600861084601F0AFF93A
:102BE0001920FEF72CFC06460EB130465AE7039832
:102BF00000012149886007FB04F048604FF0FF3076
:102C00000860012048610020C8600861084601F0A2
:102C1000C2F91A480078002872D1451EFDF7BFFAA4
:102C200054E0F8E04FF4804001F01CFAB0B3ABEB95
:102C30000800202833D2ABEB080000F0030018B9DD
:102C4000ABEB0800800803E0ABEB08008008401CF9
:102C500001904FF0000909E00949DAF80000086026
:102C600009F101090AF1040A08F1040801988145F3
:102C7000F2D324E06D000020542700206C000020D7
:102C8000802C01406E0000206F0000200064024094
:102C900064000020402700206800002012E04FF070
:102CA000000905E05AF82900F749086009F101090F
:102CB000B9F1080FF6D30AF1200A08F120086FF0E5
:102CC000404503E00DB90420ECE66D1EEE484C389B
:102CD000006840F21A3108400028A3D0082001F013
:102CE000C1F920B1082001F0C8F90420DAE6022079
:102CF00001F0B8F928B1022001F0BFF90220D1E6B5
:102D000040E0102001F0AEF920B1102001F0B5F93B
:102D10000520C7E64FF4007001F0A4F928B14FF484
:102D2000007001F0AAF90720BCE64FF4807001F0B2
:102D300099F900B3D548007838B1D4480078012813
:102D400003D0D2480078022815D10020D04908606D
:102D50000C204860402088600020C8604FF48060EC
:102D60000861084601F0EBF80C20FEF768FB064608
:102D70000EB1304696E6FDF714FA40F2FF5001F02E
:102D80007CF948E0C3480078012844D10020C249BA
:102D900008700120C14908700020C1490870BA4874
:102DA0004438006840F21A310843B7494439086092
:102DB00007FB04F140220498FFF767F9B248543842
:102DC000006840F00800B049543908604FF0FF3502
:102DD00000E06D1EB348006800F0006008B9002DE7
:102DE000F7D11DB9FFF7A4F804205BE64FF0FF35DB
:102DF00000E06D1EAA48007820B9A748007808B9FD
:102E0000002DF6D10DB904204CE6A348007810B18E
:102E1000A148007846E640F2FF5001F02EF902A8E2
:102E2000FFF715FC064603E002A8FFF710FC064674
:102E30003EB99DF808000728F6D09DF8080006283E
:102E4000F2D030462EE610B54FF4807001F00AF94A
:102E500088B392480078012814D100208C4908607A
:102E60000C204860402088600020C8604FF48060DB
:102E70000861084601F063F80C20FEF7E0FA864985
:102E8000087002E00020844908707F4848380068D4
:102E900040F480707C4948390860081D00684CF295
:102EA0003A31884378494439086001207C490870E8
:102EB0007948007810BDFFE7022001F0D3F878B11F
:102EC000022001F0DAF87048443800684CF23A31D8
:102ED00088436D494439086002206F490870E9E76A
:102EE000082001F0BFF878B1082001F0C6F8664864
:102EF000443800684CF23A318843634944390860E9
:102F0000042065490870D5E7202001F0ABF878B1BE
:102F1000202001F0B2F85C48443800684CF23A31A5
:102F2000884359494439086006205B490870C1E765
:102F3000102001F097F878B1102001F09EF8524867
:102F4000443800684CF23A3188434F4944390860AC
:102F5000052051490870ADE74FF4007001F082F888
:102F600080B14FF4007001F088F847484438006899
:102F70004CF23A31884344494439086007204649B5
:102F8000087097E7002095E710B5FFF75CFF10BDCC
:102F900070B50446002514B92625284670BD424860
:102FA000008800043A4908600D204860402088608D
:102FB0000020C8604FF480600861084600F0BFFF41
:102FC0000D20FEF73CFA05460DB12846E6E72E48EF
:102FD0006C38006820602846E0E708B500200090C3
:102FE0006846FFF7D5FF08B1FF2008BD0098C0F381
:102FF0004320FAE72DE9FE4F83460C469146002018
:103000000290002625462C46700240EAD5566D02F5
:103010000BF00300F0B14FF0000A18E04FF400701D
:1030200000904FEA4A20471946EBE0733A461F48A2
:10303000FFF76FF802904FF400721C49584608F0F1
:10304000C2F80BF5007B0AF1010000F0FF0ACA4547
:10305000E4DB16E0B9F1010F09D14FF400702A4604
:10306000334600905846FFF754F8029009E04FF4B9
:1030700000702A463346CDE900095846FFF76AF941
:1030800002900298BDE8FE8F802C01406400002071
:10309000402700206C0000206E0000206D00002002
:1030A0006F0000200064024068000020E827002034
:1030B0002DE9FE4F81460C469246002002900026E4
:1030C00025462C46700240EAD5566D0209F00300F1
:1030D000F0B14FF0000B18E04FF400724946194868
:1030E00008F071F84FF4007000904FEA4B20471938
:1030F00046EBE0733A461348FFF7F4FA029009F5FD
:1031000000790BF1010000F0FF0BD345E4DB16E082
:10311000BAF1010F09D14FF400702A4633460090EE
:103120004846FFF7DFFA029009E04FF400702A46A4
:103130003346CDE9000A4846FFF79DFC029002980D
:10314000BDE8FE8FE827002010B540F225515A480F
:1031500001F0BCFC00B3584801F0F6FBC4B257487C
:10316000008800F40040B8B954480088B0F5C87F22
:1031700013DA0021524801F0BDFF5048008818B909
:1031800001214F4801F0F6FF4C4801880088401C9F
:103190004A4A10804B48445405E04848008840F4AF
:1031A00000404649088010BD10B588B00446012192
:1031B000022001F057F90121880401F09CF93E48F2
:1031C00001F0A4FA07220B213F4800F04AFE072233
:1031D0000A213D4800F045FE4FF440600590022072
:1031E0008DF818008DF8190000208DF81A000120C4
:1031F0008DF81B0005A9344800F0A8FD01940020BB
:10320000ADF80800ADF80A00ADF80C00ADF81000FC
:103210000C20ADF80E0001A9274801F0DEFA0121CB
:10322000254801F062FB012240F22551224801F0BD
:1032300012FC27208DF81C0002208DF81D000320B1
:103240008DF81E0001208DF81F0007A800F08DFCEE
:1032500042F2CF0140F2E73000F056F80020174963
:1032600008800021164801F085FF08B010BD0FB49A
:1032700038B505A800901548009A049908F0BEFAE0
:1032800000200090114807F0B0FF85B200240DE047
:1032900000BF4021084801F003FC0028F9D00B488A
:1032A000015D054801F04CFB601C84B2AC42EFDBD1
:1032B00038BC5DF814FB000000480040740000209A
:1032C00000140040782B002000040240E829002070
:1032D00010B50121224802F07CFBA0B12148006812
:1032E000401C20490860084600681F490968884258
:1032F00005D900201B49086001201C4908600121F4
:10330000174802F077FB10BD7FB505460C4601213A
:10331000202001F0F0F80195ADF800400020ADF854
:103320000800ADF8020069460D4801F09AFE01223E
:1033300011460B4802F036FB37208DF80C001420A4
:103340008DF80D008DF80E0001208DF80F0003A8F8
:1033500000F00BFC0121024801F00CFF7FBD0000D2
:103360000014004078000020180000201400002005
:1033700010B540F225515E4801F0A8FB60B340F261
:1033800025515B4801F0DDFB594801F0DDFAC4B27C
:10339000584800785849097888420CD15648007836
:1033A00000EB4001C1EBC010544901EB001054493F
:1033B000098844540BE05348007800EB4001C1EB0E
:1033C000C0104E4901EB00104D49098844544C4847
:1033D0000088401C4A49088040F22441444801F0DA
:1033E00075FBF8B140F22441414801F0AAFB404886
:1033F000001D008801204449087041480088434965
:10340000088000203E4908803A480078404908700A
:103410003848007838490978884204D1394800781A
:103420003449087003E0344800783249087010BD10
:1034300010B588B004460121082001F013F80121DD
:10344000480401F058F807220521324800F009FD30
:10345000072206212F4800F004FD6020069002207C
:103460008DF81C0003208DF81D0000208DF81E0033
:1034700001208DF81F0006A9264800F067FC029481
:103480000020ADF80C00ADF80E00ADF81000ADF85E
:1034900014000C20ADF8120002A9154801F09DF9A6
:1034A0000121134801F021FA4021114801F005FBE8
:1034B000012240F225510E4801F0CDFA012240F2DE
:1034C00024410B4801F0C7FA26208DF804000320A0
:1034D0008DF805008DF8060001208DF8070001A881
:1034E00000F043FB00200C49086008B010BD00004C
:1034F000004400408200002080000020082D0020B1
:103500007C0000207F0000207E000020580000206A
:1035100081000020000C0240A002434208B540F2A6
:103520002551804801F0D2FAC8B340F225517D48B8
:1035300001F007FB7B4801F007FAC0B200907A481F
:10354000007820B1012269467848FDF785FC78486B
:1035500000787849097888420ED19DF800007549B5
:10356000097801EB4102C2EBC111734A02EB011170
:10357000724A128888540DE09DF80000704909785D
:1035800001EB4102C2EBC1116B4A02EB01116B4A24
:103590001288885469480088401C6849088040F2B5
:1035A0002441604801F092FAF8B140F224415D48AC
:1035B00001F0C7FA5B48001D0088012061490870CE
:1035C0005E4800886049088000205C4908805848AF
:1035D00000785E4908705648007856490978884254
:1035E00004D1574800785249087003E051480078E8
:1035F0004F49087008BD10B588B00446012108463F
:1036000000F030FF0121C80400F075FF08220021FE
:103610004F4800F026FC082201214D4800F021FC13
:103620000320069002208DF81C0003208DF81D0059
:1036300000208DF81E0001208DF81F0006A94448C7
:1036400000F084FB0420069001208DF81C0003206C
:103650008DF81D0000208DF81E0001208DF81F0040
:1036600006A93B4800F072FB02940020ADF80C0064
:10367000ADF80E00ADF81000ADF814000C20ADF858
:10368000120002A9274801F0A8F80121254801F0FD
:103690002CF94021234801F010FA012240F2255173
:1036A000204801F0D8F9012240F224411D4801F0E0
:1036B000D2F934208DF804000A208DF805008DF829
:1036C000060001208DF8070001A800F04EFA002046
:1036D0002049086008B010BD70B505460E460120AF
:1036E0001C490860022000F099F800240CE000BF9B
:1036F00040210C4801F0D4F90028F9D0295D09488F
:1037000001F01EF9601CC4B2B442F0DB00BF4021DE
:10371000044801F0C5F90028F9D000200D490860DF
:1037200070BD0000004C004012000020181700205F
:103730008A00002088000020A83C0020840000208F
:1037400087000020860000205A0000208900002009
:10375000000002408802404210B504466FF00400A9
:1037600000F050FAE11704EB5171C1F3C701394A77
:1037700011701046007800EB4001C1EBC0104FF60D
:10378000FF7101EAC0003449088010BD0146314A8A
:1037900012784A434FF0E0235A6100229A611A4698
:1037A000126942F001021A6100BF4FF0E022106975
:1037B00000F001021AB100F48032002AF5D04FF077
:1037C000E022126922F001024FF0E0231A61002288
:1037D0009A6170470146204A12884A434FF0E0231D
:1037E0005A6100229A611A46126942F001021A6176
:1037F00000BF4FF0E022106900F001021AB100F49E
:103800008032002AF5D04FF0E022126922F0010246
:103810004FF0E0231A6100229A61704770B50446A8
:103820004FF4077094FBF0F0C6B24FF4077094FBAE
:10383000F0F100FB114085B205E04FF40770FFF78F
:10384000C9FF701EC6B2002EF7D115B12846FFF78A
:10385000C1FF70BD8C0000208E00002000BF7047AB
:1038600000BFAD4A128802F04002002AF9D0C2B26D
:10387000A94B9A80704710B588B0044601210846CC
:1038800000F0F0FD0121022000F0ECFD01211020EC
:1038900000F042FE07220921A04800F0E2FA0722C8
:1038A00011469F4800F0DDFA4FF4007006900220A8
:1038B0008DF81C008DF81D0000208DF81E000120E1
:1038C0008DF81F0006A9954800F040FA8020069068
:1038D00006A9934800F03AFA02940020ADF80C00D3
:1038E000ADF80E00ADF81000ADF814000C20ADF8E6
:1038F000120002A9884800F070FF0121864800F0FC
:10390000F4FF4021844801F0D8F8012240F225510B
:10391000814801F0A0F825208DF8040032208DF8B0
:1039200005008DF8060001208DF8070001A800F0C1
:103930001CF908B010BD10B540F22551764801F0D1
:10394000C5F810B3744800F0FFFFC4B27548008892
:1039500000F40040C8B97348008800F4804060B1AA
:103960000A2C03D000206F49088020E06D480088B1
:1039700040F400406B49088019E00D2C06D16948DD
:10398000008840F480406749088010E0654800885E
:10399000C0F30D0064490C5462480088401C614922
:1039A000088008460088C72801DD0020088010BD77
:1039B00010B588B004460121042000F053FD012118
:1039C000202000F0A9FD08220621584800F049FAFD
:1039D00008220721554800F044FA402006900220B2
:1039E0008DF81C008DF81D0000208DF81E000120B0
:1039F0008DF81F0006A94D4800F0A8F98020069018
:103A000006A94A4800F0A2F902940020ADF80C0083
:103A1000ADF80E00ADF81000ADF814000C20ADF8B4
:103A2000120002A9424800F0D8FE0121404800F0EF
:103A30005CFF40213E4801F040F8012240F2255150
:103A40003B4801F008F847208DF8040032208DF83B
:103A500005008DF8060001208DF8070001A800F090
:103A600084F808B010BD10B540F22551304801F07F
:103A70002DF810B32E4800F067FFC4B22D4800881F
:103A800000F40040C8B92B48008800F4804060B1C1
:103A90000A2C03D000202749088020E02548008810
:103AA00040F400402349088019E00D2C06D121483C
:103AB000008840F480401F49088010E01D480088BD
:103AC000C0F30D001C490C541A480088401C1949C9
:103AD000088008460088C72801DD0020088010BD46
:103AE00070B505460E4600240CE000BF402110488A
:103AF00000F0D6FF0028F9D0295D0D4800F020FF26
:103B0000601CC4B2B442F0DB00BF4021084800F0A2
:103B1000C7FF0028F9D070BD00100140000002402E
:103B20000004024098000020484C00200008024099
:103B30000014014090000020104D002006488047EE
:103B400006480047FEE7FEE7FEE7FEE7FEE7FEE782
:103B5000FEE7FEE7FEE7FEE7290900088901000805
:103B600032490143324A1160704770B50021002389
:103B70000F22C4781CB32E4C246804F4E064C4F50E
:103B8000E064C4F30721C1F10404E3B20A414478BC
:103B90009C40E1B28478144021430C07210E254C4F
:103BA00005786155047804F01F050124AC400578C0
:103BB0006D11AD0005F1E025C5F8004109E004787C
:103BC00004F01F050124AC401B4D0678761145F822
:103BD000264070BD194A0A400243154B1B1F1A604C
:103BE000704739B1124A121D12680243104B1B1D57
:103BF0001A6006E00E4A121D126882430C4B1B1D10
:103C00001A607047042808D14FF0E021096941F09B
:103C100004014FF0E022116107E04FF0E021096953
:103C200021F004014FF0E022116170470000FA0515
:103C30000CED00E000E400E080E100E080FFFF1F09
:103C400010B504469848844208D10121084600F086
:103C500074FC0021012000F070FC76E0934884425F
:103C600008D10121022000F068FC0021022000F0B0
:103C700064FC6AE08E48844208D10121042000F0EF
:103C80005CFC0021042000F058FC5EE0894884427E
:103C900008D10121082000F050FC0021082000F08C
:103CA0004CFC52E08448844208D10121102000F0ED
:103CB00044FC0021102000F040FC46E07F48844294
:103CC00008D10121202000F038FC0021202000F044
:103CD00034FC3AE07A48844208D10121402000F0C7
:103CE0002CFC0021402000F028FC2EE07548844286
:103CF00008D10121802000F020FC0021802000F06C
:103D00001CFC22E07048844208D10121801500F09B
:103D100014FC0021A01500F010FC16E06B48844252
:103D200008D10121401500F008FC0021601500F0C9
:103D300004FC0AE06648844207D10121001500F026
:103D4000FCFB0021201500F0F8FB10BDF0B50A4681
:103D500000210023002400BF3DE0012505FA01F306
:103D6000156805EA03049C4234D105684F00032618
:103D7000BE40B543056015794E00B5400668354331
:103D800005601579012D02D01579022D16D18568AF
:103D90004F000326BE40B543856055794E00B540BF
:103DA000866835438560456801268E40B543456089
:103DB000456896798E40B6B235434560C5684F0078
:103DC0000326BE40B543C560D5794E00B540C668F0
:103DD0003543C560491C1029BFD3F0BD4FF6FF71B4
:103DE00001600021017141718171C171704708B595
:103DF0004FF480320092009A0A430092009AC26106
:103E0000C161009AC261C2690092C269009208BD94
:103E10000246002013690B400BB1012000E0002096
:103E200070470146086980B2704702460020536916
:103E30000B400BB1012000E00020704701464869AB
:103E400080B2704701837047418370470AB1018394
:103E500000E0418370474161704742694A404261D6
:103E60007047F0B5002300244D07ED0E02FA05F36C
:103E7000CE1000F1200555F826504E07F70E0F26FC
:103E8000BE40B543CF1000F1200646F82750CE10B3
:103E900000F1200555F8265045EA0304CE1000F144
:103EA000200545F82640F0BD000002400004024015
:103EB00000080240000C02400010024000140240C2
:103EC00000180240001C0240002002400024024072
:103ED0000028024010B50121C80200F072FB002149
:103EE0004FF4006000F06DFB10BD00216C4A1168BA
:103EF00047F6FF629143027D83681A4343681A4381
:103F0000C3681A4303681A4303691A431143644A96
:103F10001160704700210175016041608160C160DE
:103F2000016170475F49086070475D49091F08607B
:103F300070475B48001F006800F0030070470021D5
:103F4000574B1B1D02681A601A1D11686FF30A0196
:103F5000D0E901231A43C3681A4303691A43114382
:103F60004F4A083211607047002101604160816052
:103F7000C160016170474A480C300068C0B27047A8
:103F800008B50146002000904548103008440090D4
:103F90000098006808BD0021414B203302681A6078
:103FA0001B1D42681A601A1D116821F0F701D0E943
:103FB00002231A4303691A4343691A431143384AD7
:103FC0002832116070474FF0FF31016000214160DD
:103FD0008160C16001614161704731482C300068E7
:103FE00070472F487C30006870472D497C3108604D
:103FF00070472B484430006870472B490860704771
:104000002949091D08607047274908310860704731
:1040100025490C31086070472449086070472349DE
:10402000091D0860704701218143204A0832116050
:1040300070471E490C31086070471B4914390860ED
:10404000704739B1164A383212680243144B38337C
:104050001A6006E0124A383212688243104B383335
:104060001A607047014600200D4A303212680A403B
:104070000AB1012000E0002070470949343108608E
:10408000704701460020064A303212680A400AB1E1
:10409000012000E00020704701493431086070477A
:1040A000042C0140A0802542A0852542AC812542F8
:1040B000F948006840F00100F74908600020F6491F
:1040C00008310860F4480068F4490840F249086083
:1040D000F348091D0860F348EF4984310860F0484F
:1040E0001038091D0860EC48006820F48020EA4977
:1040F00008600020E8490C310860E7498C3108600D
:1041000070470021E44A921C1170114608707047F4
:1041100010B501460022002300204A11012A02D1D5
:10412000DD4C236808E0022A03D1DB4C703423689D
:1041300002E0D94C7434236801F01F02012494403A
:104140001C400CB1012000E0002010BD38B500205B
:1041500000900024002500BF3120FFF7D9FF05465D
:104160000098401C00900098B0F5A04F01D0002DA1
:10417000F2D03120FFF7CCFF08B1012400E0002489
:10418000204638BD01460020C34A106820F0F800E0
:1041900040EAC10010607047C349086070470021C1
:1041A000BD4A703211701170012802D004280AD162
:1041B00004E00121B84A7032117005E00521B64AC9
:1041C0007032117000E000BF00BF7047B74908604F
:1041D000704770B5049C41EA82150126C6EB530670
:1041E00045EA0645054345EA0465AB4E361D356094
:1041F00070BDAD4908667047820142EA0172A64B64
:1042000084331A607047A8498866704710B58301E7
:1042100043EA016343EA02739F4C8834236010BD74
:10422000A14908677047A049C8647047024600204A
:10423000994B0833186820F0EC6042EA01031843F8
:10424000954B08331860704702460020924B0833A4
:10425000186820F0784042EA010318438E4B083377
:1042600018607047014600208B4A0832106820F021
:10427000030008431060704787480830006800F06A
:104280000C00704701460020834A0832106820F075
:10429000F000084310607047014600207E4A083253
:1042A000106820F4E0500843106070470146002079
:1042B000794A0832106820F4604040EAC10010607A
:1042C0007047F0B5002100220024022500260223B9
:1042D000714F08373F6807F00C0121B1042905D060
:1042E000082937D105E0724F076036E0714F07604B
:1042F00033E0694F3F1D3F68C7F38056664F3F1D4F
:104300003F6807F03F036EB16A4FB7FBF3F7DFF882
:1043100088C10CF1040CDCF800C0CCF3881C07FB4E
:104320000CF40CE0624FB7FBF3F7DFF86CC10CF153
:10433000040CDCF800C0CCF3881C07FB0CF4564FCF
:104340003F1D3F68C7F301477F1C7D00B4FBF5F7B5
:10435000076002E0564F076000BF00BF4E4F0837AE
:104360003F6807F0F0010909534F7A5C0768D740AE
:104370004760494F08373F6807F4E051890A4E4FBC
:104380007A5C4768D7408760434F08373F6807F437
:104390006041490B484F7A5C4768D740C760F0BD21
:1043A000002100F44072B2F5407F0AD13A4A083247
:1043B000116821F4F811414A02401143364A08328B
:1043C0001160354A70321268C0F30B031A43324B46
:1043D00070331A6070473549443908607047334973
:1043E0004039086070473649086070470146002030
:1043F000294A8C32106820F01F004A1E1043264ABA
:104400008C321060704701460020234A8C321068BD
:1044100020F4F8504A1E40EA02201F4A8C321060F5
:104420007047014600201C4A8C32106820F440106E
:1044300008431060704701460020174A8C3210680C
:1044400020F4400008431060704701460020124AE3
:104450008C32106820F440300843106070471949CE
:104460000860704739B10C4A3032126802430A4B77
:1044700030331A6006E0084A303212688243064B35
:1044800030331A607047F9B1034A3432126802437C
:10449000014B34331A601CE000380240FFFFF6EA9B
:1044A000103000240030002000004742800E4742B8
:1044B0000024F40000127A009A000020FFFCFF0F95
:1044C0005C014742E01147428F4A126882438E4B9B
:1044D0001A60704739B18C4A121D126802438A4B28
:1044E0001B1D1A6006E0884A121D12688243864B23
:1044F0001B1D1A60704739B1834A0C32126802439F
:10450000814B0C331A6006E07F4A0C3212688243FA
:104510007D4B0C331A60704739B17B4A10321268F8
:104520000243794B10331A6006E0774A1032126862
:104530008243754B10331A60704739B1724A243A7E
:1045400012680243704B243B1A6006E06E4A243A1C
:10455000126882436C4B243B1A60704739B16A4A37
:10456000203A12680243684B203B1A6006E0664A14
:10457000203A12688243644B203B1A60704739B17D
:10458000614A1C3A126802435F4B1C3B1A6006E00A
:104590005D4A1C3A126882435B4B1C3B1A607047B1
:1045A00039B1594A143A12680243574B143B1A6006
:1045B00006E0554A143A12688243534B143B1A6082
:1045C000704739B1504A103A126802434E4B103BC3
:1045D0001A6006E04C4A103A126882434A4B103B7C
:1045E0001A60704739B1484A1C3212680243464B80
:1045F0001C331A6006E0444A1C3212688243424B64
:104600001C331A60704739B13F4A203212680243A6
:104610003D4B20331A6006E03B4A20321268824349
:10462000394B20331A60704739B1374A2432126847
:104630000243354B24331A6006E0334A24321268B1
:104640008243314B24331A60704739B12E4A2C32E1
:10465000126802432C4B2C331A6006E02A4A2C3293
:1046600012688243284B2C331A60704739B1264AAE
:10467000303212680243244B30331A6006E0224A7B
:10468000303212688243204B30331A607047012861
:1046900008D11D493C31096841F008011A4A3C32F1
:1046A000116007E018493C31096821F00801164AF9
:1046B0003C321160704739B1134A273A12780243ED
:1046C000114B273B1A7006E00F4A273A12788243B3
:1046D0000D4B273B1A7070470B484030006840F084
:1046E0008070094940310860704701460020064A41
:1046F000283A12680A400AB1012000E00020704701
:1047000001492639087070473438024010B5044614
:10471000FA48844208D101211020FFF752FF0021FE
:104720001020FFF74EFF57E0F548844209D10121E0
:104730004804FFF735FF00214FF40030FFF730FF4A
:104740004AE0F048844209D101218804FFF728FF9C
:1047500000214FF48020FFF723FF3DE0EA48844228
:1047600009D10121C804FFF71BFF00214FF40020ED
:10477000FFF716FF30E0E548844209D10121080522
:10478000FFF70EFF00214FF48010FFF709FF23E031
:10479000DF48844208D101212020FFF712FF0021C9
:1047A0002020FFF70EFF17E0DA48844209D10121EB
:1047B0008807FFF7F5FE00214FF08040FFF7F0FE7D
:1047C0000AE0D548844207D101214005FFF7E8FE01
:1047D00000216005FFF7E4FE10BD2DE9FF47054607
:1047E0000E460024A14600BFA046B08900B100BF1C
:1047F0002C8A24F44054F08804432C82AC8941F282
:104800000C608443B08831890843718908430443AC
:10481000AC81AC8A24F44074B0890443AC8268460D
:10482000FFF74FFDB548854202D0B948854202D115
:10483000DDF80C9001E0DDF80890A88900F4004054
:1048400040B109EBC90000EB091031684900B0FB29
:10485000F1F707E009EBC90000EB091031688900A6
:10486000B0FBF1F76420B7FBF0F0040120096421EC
:1048700001FB1078A88900F4004040B1322000EB21
:10488000C800B0FBF1F000F00700044308E032205C
:1048900000EB08106421B0FBF1F000F00F000443BE
:1048A0002C81BDE8FF874FF4165101600021818003
:1048B000C18001810C21418100218181704710B5A7
:1048C00002460020108A20F470600B884C88234335
:1048D0008C882343CC8823431843108210BD0021C9
:1048E000018041808180C180704721B1828942F47A
:1048F0000052828104E082894DF6FF731A40828162
:104900007047028B02F47F420283028B0A430283C8
:10491000704721B1828942F40042828103E082899A
:10492000C2F30E028281704721B1828A42F4006292
:10493000828204E0828A4FF2FF731A4082827047BB
:10494000C1F308028280704701468888C0F30800DE
:104950007047028A4FF6F0731A400282028A0A43B5
:104960000282704721B1828942F00202828104E012
:1049700082894FF6FD731A408281704782894FF217
:10498000FF731A40828182890A4382817047028ABA
:104990004FF6DF731A400282028A0A43028270478E
:1049A00021B1028A42F48042028204E0028A4BF67C
:1049B000FF731A4002827047818941F001018181B1
:1049C000704721B1828A42F00802828204E0828A22
:1049D0004FF6F7731A4082827047028BD2B202837D
:1049E000028B42EA01220283704721B1828A42F09F
:1049F0002002828204E0828A4FF6DF731A408282AC
:104A0000704721B1828A42F01002828204E0828AD9
:104A10004FF6EF731A4082827047828A4FF6FB731B
:104A20001A408282828A0A438282704721B1828A36
:104A300042F00202828204E0828A4FF6FD731A403D
:104A4000828270471AB1838A0B43838202E0838A91
:104A50008B4383827047F0B503460024002600256F
:104A6000002040F66A17B94200D100BF1846C1F3D2
:104A7000421401F01F06012707FA06F5012C01D1A7
:104A80000C3004E0022C01D1103000E014301AB1D7
:104A900007682F43076002E00768AF430760F0BD77
:104AA00002460020B1F5007F00D100BF13880B4003
:104AB0000BB1012000E00020704701F40072B2F554
:104AC000007F00D100BFCA430280704770B5024624
:104AD000002400230025002040F66A16B14200D1D0
:104AE00000BFC1F3421501F01F03012606FA03F3CC
:104AF000012D13D19689334017E0000000100140CA
:104B00000044004000480040004C0040005000407D
:104B10000014014000780040007C0040022D02D1CA
:104B2000168A334001E0968A33400C12012606FAB9
:104B300004F41688344013B10CB1012000E00020C9
:104B400070BD10B50022002340F66A14A14200D1C6
:104B500000BF0A1201249440A3B2DC43048010BDBC
:104B6000016821F001010160002101604160816064
:104B7000C160016121214161DB49884204D13D21AD
:104B8000D94A103A91608CE0D7491831884205D152
:104B90004FF47461D44A103A916082E0D2493031C6
:104BA000884205D14FF47411CF4A103A916078E0F1
:104BB000CD494831884205D14FF07461CA4A103A54
:104BC00091606EE0C8496031884204D1C749C64A45
:104BD000103AD16065E0C4497831884204D1C449B3
:104BE000C14A103AD1605CE0BF499031884204D19B
:104BF000C049BD4A103AD16053E0BB49A831884250
:104C000005D14FF03D51B84A103AD16049E0BA4958
:104C1000884204D13D21B84A083A116041E0B649C2
:104C20001831884205D14FF47461B34A083A1160D3
:104C300037E0B1493031884205D14FF47411AE4AA2
:104C4000083A11602DE0AC494831884205D14FF057
:104C50007461A94A083A116023E0A749603188428B
:104C600004D1A249A44A121F11601AE0A249783166
:104C7000884204D19E49A04A121F116011E09E494A
:104C80009031884204D19B499B4A121F116008E071
:104C90009949A831884204D14FF03D51964A121FDC
:104CA0001160704710B500220268944B1A40CC681E
:104CB0000B6823434C6923438C692343CC6923430A
:104CC0000C6A23434C6A23438C6A23434C6B234373
:104CD0008C6B23431A430260426922F00702D1E938
:104CE0000B3423431A4342610B6943604B68836072
:104CF0008B68C36010BD0021016041608160C160AC
:104D0000016141618161C161016241628162C1628F
:104D1000016341638163704721B1026842F001027F
:104D2000026003E0026822F001020260704721B1D4
:104D3000026842F40042026003E0026822F400428A
:104D40000260704721B1026842F02002026003E075
:104D5000026822F0200202607047416070470146FD
:104D6000486880B2704722B1036843F400230360AF
:104D700003E0036823F4002303600161704721B15D
:104D8000026842F48022026003E0026822F480227A
:104D9000026070470AB1016100E0C16070470146DE
:104DA00000200A6802F400220AB1012000E000207D
:104DB0007047014600200A6802F001020AB1012092
:104DC00000E000207047014600204A6902F03800E8
:104DD000704730B503460A4600200024464DAB42DA
:104DE00002D24149103901E04349103902F000551F
:104DF0000DB14C6800E00C68414D2C4004EA0205FE
:104E00000DB1012000E0002030BD02463A4B9A422D
:104E100002D23548103801E03748103801F000530D
:104E20001BB1374B0B40C36002E0354B0B40836036
:104E3000704710B501F080034BB122B1436943F0D4
:104E40008003436103E0436923F0800343618029C9
:104E50000BD02AB1036801F01E042343036004E071
:104E6000036801F01E04A343036010BD70B5024641
:104E7000002000240025204EB24202D21A4B103BE3
:104E800001E01D4B103B1F4E0E4036B11E2606EAB8
:104E9000D124166806EA040502E0566906F080058A
:104EA00001F000560EB15C6800E01C68144E3440FE
:104EB00004EA010616B10DB1012000E0002070BD2A
:104EC00002460D4B9A4202D20748103801E00A48C8
:104ED000103801F000531BB1094B0B40C36002E0D6
:104EE000074B0B4083607047106002403D0000207C
:104EF000400F002000003D20106402403F801CF065
:104F00007D0F7D0F3C0F3C0F10B50446FE488442D8
:104F100008D101210846FFF754FB00210120FFF7CB
:104F200050FB9DE0B4F1804F08D101210846FFF706
:104F300037FB00210120FFF733FB91E0F348844267
:104F400008D101210220FFF72BFB00210220FFF7EF
:104F500027FB85E0EE48844208D101210420FFF7B9
:104F60001FFB00210420FFF71BFB79E0E948844286
:104F700008D101210820FFF713FB00210820FFF7CB
:104F80000FFB6DE0E448844208D101211020FFF7B7
:104F900007FB00211020FFF703FB61E0DF4884429C
:104FA00008D101212020FFF7FBFA00212020FFF784
:104FB000F7FA55E0DA48844208D101210220FFF7D0
:104FC00000FB00210220FFF7FCFA49E0D5488442AB
:104FD00009D101210804FFF7F4FA00214FF48030D1
:104FE000FFF7EFFA3CE0D048844209D101214804A0
:104FF000FFF7E7FA00214FF40030FFF7E2FA2FE065
:10500000CA48844209D101218804FFF7DAFA002155
:105010004FF48020FFF7D5FA22E0C548844208D13A
:1050200001214020FFF7BCFA00214020FFF7B8FA29
:1050300016E0C048844208D101218020FFF7B0FA71
:1050400000218020FFF7ACFA0AE0BB48844207D178
:1050500001218015FFF7A4FA0021A015FFF7A0FA9F
:1050600010BD00220288A84B98420ED0AC4B98424B
:105070000BD0B0F1804F08D0A44B984205D0A44B80
:10508000984202D0A34B984204D14FF68F731A4036
:105090004B881A43A04B984207D0A04B984204D0AB
:1050A0004FF6FF431A400B891A4302804B68C362D4
:1050B0000B880385944B984202D0994B984201D1BA
:1050C0008B7A03860123838270474FF0FF31416062
:1050D00000210180018141808172704701858282B7
:1050E00070470A46002101884FF68F73194011431B
:1050F0000180704741627047C16270470146486A4B
:1051000070470146088D704721B1028842F00202C3
:10511000028004E002884FF6FD731A400280704757
:1051200021B1028842F00402028004E002884FF6B6
:10513000FB731A400280704721B1028842F080025E
:10514000028004E002884FF67F731A4002807047A5
:1051500002884FF6F7731A40028002880A430280E1
:10516000704702884FF6FF431A40028002880A43C4
:105170000280704721B1028842F00102028004E0FF
:1051800002884FF6FE731A400280704770B5002403
:1051900000220023058C4FF6FE7635400584028CF4
:1051A0008388048B4FF68F752C40B51E2C400D88DC
:1051B0002C43751E2A408D892A434D882A43524D1F
:1051C000A84202D0564DA84213D14FF6F7752A4097
:1051D000CD892A434FF6FB752A408D882A434FF626
:1051E000FF652B404FF6FF552B400D8A2B434D8A10
:1051F0002B43838004838D684563028470BD70B542
:10520000002400220023058C4FF6EF7635400584FC
:10521000028C8388048B48F6FF752C404FF6FF45BF
:105220002C400D884FF6FF7606EA05252C434FF6F5
:10523000DF752A408D8906EA05152A434D8806EA5E
:1052400005152A43304DA84202D0354DA8421DD144
:105250004FF67F752A40CD894FF6FF7606EA051591
:105260002A434FF6BF752A408D8806EA05152A4362
:105270004FF6FF352B404FF2FF752B400D8A06EAA3
:1052800085052B434D8A06EA85052B4383800483DD
:105290008D688563028470BD70B5002400220023F0
:1052A000058C4FF6FF6635400584028C8388848B1D
:1052B0004FF68F752C404FF6FC752C400D882C4313
:1052C0004FF6FF552A408D894FF6FF7606EA0525F1
:1052D0002A434D8806EA05252A430B4DA84202D0F1
:1052E0000F4DA84238D14FF2FF752A40CD894FF6B5
:1052F000FF7606EA05252A434FF6FF352A408D88BA
:1053000006EA05252A4319E0000001400004004098
:1053100000080040000C0040001000400014004055
:1053200000040140004001400044014000480140A9
:1053300000180040001C0040002000404EF6FF75A1
:105340002B404DF6FF752B400D8A06EA05152B43C1
:105350004D8A06EA05152B43838084838D68C563D7
:10536000028470BD70B5002200230024058C4EF627
:10537000FF7635400584038C8488828B48F6FF7560
:105380002A404FF6FF452A400D884FF6FF7606EA81
:1053900005252A434DF6FF752B408D8906EA053514
:1053A0002B434D8806EA05352B43FE4DA84202D01B
:1053B000FD4DA84208D14BF6FF752C400D8A4FF6E3
:1053C000FF7606EA85152C43848082838D68056408
:1053D000038470BD002101804180818081608181D2
:1053E000C18101824182704770B5034600200024CC
:1053F0001846183001258D40ACB21D8CA5431D8484
:1054000009B108290AD100EB610005684FF68F76D3
:10541000354005600568154305600FE00D1FC5F3B5
:105420004E052844056848F6FF7635400560056856
:105430004FF6FF7606EA02263543056070BD4163EC
:10544000704781637047C1637047016470470A46C3
:105450000021018B4FF68F73194011430183704770
:105460000A460021018B48F6FF7319404FF6FF737F
:1054700003EA02231943018370470A460021818B06
:105480004FF68F7319401143818370470A460021FC
:10549000818B48F6FF7319404FF6FF7303EA02232E
:1054A0001943818370470A460021018B4FF6F77339
:1054B00019401143018370470A460021018B4FF2C6
:1054C000FF7319404FF6FF7303EA02231943018368
:1054D00070470A460021818B4FF6F773194011433C
:1054E000818370470A460021818B4FF2FF73194078
:1054F0004FF6FF7303EA02231943818370470A467C
:105500000021018B4FF6FB73194011430183704753
:105510000A460021018B4FF6FF3319404FF6FF7307
:1055200003EA02231943018370470A460021818B55
:105530004FF6FB7319401143818370470A460021DF
:10554000818B4FF6FF3319404FF6FF7303EA0223B6
:105550001943818370470A460021018B4FF67F7300
:1055600019401143018370470A460021018BC1F3A2
:105570000E014FF6FF7303EA0223194301837047BC
:105580000A460021818B4FF67F73194011438183B6
:1055900070470A460021818BC1F30E014FF6FF735D
:1055A00003EA02231943818370470A460021018CD4
:1055B0004FF6FD7319401143018470470A460021DC
:1055C000018C4FF6F77319401143018470470A4666
:1055D0000021018C4FF6DF7319404FF6FF7303EA89
:1055E00002131943018470470A460021018C4FF6CB
:1055F0007F7319404FF6FF7303EA021319430184C6
:1056000070470A460021018C4FF6FF5319404FF6B0
:10561000FF7303EA02231943018470470A460021FD
:10562000018C4FF2FF7319404FF6FF7303EA022318
:105630001943018470470A460021018C4DF6FF731F
:1056400019404FF6FF7303EA023319430184704790
:1056500030B5002301248C40A3B2048C9C43048405
:10566000048C02FA01F5ADB22C43048430BD30B590
:10567000002304248C40A3B2048C9C430484048C37
:1056800002FA01F5ADB22C43048430BD828B4FF297
:10569000FF331A408283828B4FF6FF7303EA0123A4
:1056A0001A4382837047F0B50C461546002100224C
:1056B0000026078C4EF6FF7C07EA0C070784818BD7
:1056C000028C4FF6FF7707EA043640F6FF47394071
:1056D0004FF6FF7707EA052739434FF6FF7707EACA
:1056E0000337394345F6FF773A4046F480573A434B
:1056F00081830284F0BD828B4FF6F3731A4082835C
:10570000828B0A4382837047F0B50C461546002110
:1057100000220026078C4FF6FF6C07EA0C0707846F
:10572000818B028C4FF6FF7707EA04264FF60C7741
:1057300039404FF6FF7707EA03172F4339434FF2FB
:10574000FF573A4046F480773A4381830284F0BDA4
:10575000028B4FF2FF331A400283028B4FF6FF7326
:1057600003EA01231A4302837047F0B50C4615463D
:10577000002100220026078C4FF6EF7C07EA0C0779
:105780000784018B028C4FF6FF7707EA041640F678
:10579000FF4739404FF6FF7707EA033739434FF6A3
:1057A000FF7703E0000001400004014007EA0527FD
:1057B00039434FF65F773A4046F010073A4301838A
:1057C0000284F0BD028B4FF6F3731A400283028B02
:1057D0000A4302837047F0B50C46154600210022AB
:1057E000068C4FF6FE773E400684018B028C4FF606
:1057F0000C7631407E1C06EA03162E4331434FF6E9
:10580000F576324044F00106324301830284F0BD54
:1058100070B505460C46208850B92389A288618856
:105820002846FFF7D8FFE1882846FFF7CBFF25E0A1
:10583000208804280AD12389A28861882846FFF796
:1058400094FFE1882846FFF783FF17E020880828A7
:105850000AD12389A28861882846FFF755FFE1888D
:105860002846FFF748FF09E02389A2886188284677
:10587000FFF719FFE1882846FFF708FF70BD0021F8
:1058800001804180012181800021C1800181704718
:105890002DE9F04105460C4600260127608808B92D
:1058A000022600E00026A088012801D1022700E09E
:1058B00001272088A0B92389A28861882846FFF79C
:1058C0008AFFE1882846FFF77DFF23893A46314663
:1058D0002846FFF74AFFE1882846FFF739FF13E023
:1058E0002389A28861882846FFF73FFFE188284680
:1058F000FFF72EFF23893A4631462846FFF76BFF14
:10590000E1882846FFF75EFFBDE8F0810146486B5D
:1059100070470146886B70470146C86B7047014667
:10592000086C70470A884B881A438B881A43CB88C7
:105930001A430B891A434B891A438B891A43A0F8DF
:10594000442070470021018041808180C180018115
:1059500041818181704731B1B0F8442042F4004266
:10596000A0F8442005E0B0F84420C2F30E02A0F8ED
:105970004420704721B1828842F00402828004E012
:1059800082884FF6FB731A408280704721B182886B
:1059900042F00102828004E082884FF6FE731A40D2
:1059A000828070471AB183890B43838102E0838927
:1059B0008B43838170478182704702460020138A9F
:1059C0000B400BB1012000E000207047CA43028267
:1059D000704730B50246002000230024158A05EAEE
:1059E0000103958905EA010413B10CB1012000E01F
:1059F000002030BDCA430282704741EA0203A0F88A
:105A0000483070471AB183890B43838102E0838950
:105A10008B438381704721B1828842F008028280E3
:105A200004E082884FF6F7731A408280704701893C
:105A30004FF6F8721140018170470A460021018932
:105A40004FF68F73194011430181704730B50446FA
:105A50000D4629462046FFF7F0FF208940F0070059
:105A6000208130BD2DE9F04104460D4616461F4603
:105A7000602D06D13B46012231462046FFF775FED8
:105A800005E03B46012231462046FFF7A4FE2946A9
:105A90002046FFF7D2FF208940F007002081BDE8B3
:105AA000F08130B50C4600210189C9B24FF6FF756F
:105AB00005EA0325154325432943018130BD2DE91E
:105AC000F04105460E4617469846002443463A469E
:105AD00031462846FFF7E5FF2C894FF6F870044061
